:020000040800F2
:1000000068060020B5010008BD0300087902000859
:10001000B903000871020008D103000800000000C5
:10002000000000000000000000000000C503000800
:100030007502000800000000C1030008C9030008A1
:10004000CF010008CF010008CF010008CF01000850
:10005000CF010008CF010008CF010008CF01000840
:10006000CF010008CF010008CF010008CF01000830
:10007000CF010008CF010008CF010008CF01000820
:10008000CF010008CF010008CF010008CF01000810
:10009000CF010008CF010008CF010008CF01000800
:1000A000CF010008CF010008CF010008CF010008F0
:1000B000CF010008CF010008CF010008CF010008E0
:1000C000CF010008CF010008CF010008CF010008D0
:1000D000CF010008CF010008CF010008CF010008C0
:1000E000CF010008CF010008CF01000800F002F89E
:1000F00000F050F814A696E8000CB244B344DA4578
:1001000001D100F047F8BAE80F000FA696E83000DA
:10011000A5EB040504EB0607AAEB0704A7F101070A
:100120004FEA15154FEA3414A4F10104AC4201D38F
:1001300000F030F813F0010F18BFFB1A43F0010371
:1001400000F001F8DBE718474404000064040000F5
:10015000103A24BF78C878C1FAD8520724BF30C8F3
:1001600030C144BF04680C60704700007047000055
:100170000023002400250026103A28BF78C1FBD8B0
:10018000520728BF30C148BF0B6070471FB51FBD65
:1001900010B510BD00F031F81146FFF7F7FF00F081
:1001A00019F900F04FF803B4FFF7F2FF03BC00F0B9
:1001B00057F800000948804709480047FEE7FEE776
:1001C000FEE7FEE7FEE7FEE7FEE7FEE7FEE7FEE707
:1001D00004480549054A064B70470000CD03000856
:1001E000ED0000086800002068060020680200207A
:1001F00068020020704770477047754600F02CF881
:10020000AE4605006946534620F00700854618B003
:1002100020B5FFF7DDFFBDE820404FF000064FF0AE
:1002200000074FF000084FF0000BAC46ACE8C009E7
:10023000ACE8C009ACE8C009ACE8C00921F007018E
:100240008D46704710B50446AFF300802046BDE8E8
:100250001040FFF7A8BF00000048704708000020CA
:1002600001491820ABBEFEE72600020070470000DF
:10027000FEE7000070470000FEE700002DE9F04FA8
:10028000B1F8018098FAA8F3B3FA83F338FA03F7C8
:1002900050D040F2011C4FF0011E4FF00F0A4FF0FA
:1002A000040903E0013338FA03F243D028FA03F5D6
:1002B000ED07F7D0B3F108050EFA05F545F08066B5
:1002C0004D6838BF0CFA03F6082D0DD1370AD1F866
:1002D00010B0C46897FAA7F7B7FA87F724EA16248C
:1002E0000BFA07F73C43C460370E96FAA6F6B6FA47
:1002F00086F63C58B6000AFA06F224EA020205FA2B
:1003000006F442EA04053D504A6842F00802092A10
:10031000C8D18A680324B44025EA0404B2402243C9
:10032000C251CC6809FA06F5AA43B4402243C2512F
:10033000B8E700BF0020BDE8F08F000044F6D351BD
:10034000C1F26201A0FB01014FF0FF3000EB911000
:100350004EF21001CEF200014860002088600520B6
:100360000860704740F20001C2F200010860704767
:1003700081B04EF21001CEF200010A680130009205
:10038000009A28BF4FF0FF300A68D20300EBE270FA
:1003900078B10A68D20300EBE27050B10A68D20368
:1003A00000EBE27028B10A68D20300EBE27000288B
:1003B000EAD101B070470000FEE70000FEE7000050
:1003C0007047000070470000704700007047000051
:1003D000FEE7000086B041F20405C4F20205686938
:1003E0004EF60C5140F0010068616869CEF20001E0
:1003F00000F0010000900098A8694FF6FF0240F05D
:100400008050A861A8694FF0FF3600F0805000903E
:1004100000980868104040F20032C0F2FA521043CF
:1004200008600A6842F20000C2F3022282F0070369
:10043000042B28BF0423033A06FA03F338BF002233
:10044000DB4303FA02F21201CA750421C4F201016E
:100450000A68022363F31A62C4F202000A600168A8
:1004600021F0070101600168490709D001684907C7
:100470001CBF01685FEA417102D001684907F2D1EF
:1004800055F8040C102161F3C70045F8040C55F829
:10049000040C40F0010045F8040C55F8040C8007EA
:1004A0000CD455F8040C80075CBF55F8040C5FEAC7
:1004B000807003D455F8040C8007EED5286820F02E
:1004C000F0002860286820F4E0602860286820F4A4
:1004D00060502860286820F003002860286810F029
:1004E0000C0F0BD0286810F00C0F07D0286810F004
:1004F0000C0F03D0286810F00C0FEFD141F200244C
:10050000C0F27A0441F214062046C4F20106FFF755
:1005100015FF2046FFF726FF00210491686920227D
:1005200040F01000686168694FF4005400F010005A
:10053000059005986869C0F2204240F0200068618B
:10054000686900F0200005900598686940F0040093
:100550006861686900F0040005900598304640F82D
:1005600014490092012201920222CDE9022169463A
:10057000FFF784FE4FF47A7046F8044CFFF7F8FE5C
:100580004FF47A703460FFF7F3FEF3E7B00500082C
:10059000000000200800000050010008B805000815
:1005A0000800002060060000700100080000000044
:0805B0000024F400000000002B
:04000005080000ED02
:00000001FF
